{
  "address": "0x1B648D5d5B3B9B0D938A9F726554f2d818D594ba",
  "abi": [
    {
      "inputs": [
        {
          "internalType": "uint256",
          "name": "_lockTime",
          "type": "uint256"
        },
        {
          "internalType": "address",
          "name": "dataFeedAddr",
          "type": "address"
        }
      ],
      "stateMutability": "nonpayable",
      "type": "constructor"
    },
    {
      "anonymous": false,
      "inputs": [
        {
          "indexed": false,
          "internalType": "uint256",
          "name": "",
          "type": "uint256"
        }
      ],
      "name": "FundWithdrawByOwner",
      "type": "event"
    },
    {
      "anonymous": false,
      "inputs": [
        {
          "indexed": false,
          "internalType": "address",
          "name": "",
          "type": "address"
        },
        {
          "indexed": false,
          "internalType": "uint256",
          "name": "",
          "type": "uint256"
        }
      ],
      "name": "RefundByFunder",
      "type": "event"
    },
    {
      "inputs": [],
      "name": "dataFeed",
      "outputs": [
        {
          "internalType": "contract AggregatorV3Interface",
          "name": "",
          "type": "address"
        }
      ],
      "stateMutability": "view",
      "type": "function"
    },
    {
      "inputs": [],
      "name": "fund",
      "outputs": [],
      "stateMutability": "payable",
      "type": "function"
    },
    {
      "inputs": [
        {
          "internalType": "address",
          "name": "",
          "type": "address"
        }
      ],
      "name": "fundersToAmount",
      "outputs": [
        {
          "internalType": "uint256",
          "name": "",
          "type": "uint256"
        }
      ],
      "stateMutability": "view",
      "type": "function"
    },
    {
      "inputs": [],
      "name": "getChainlinkDataFeedLatestAnswer",
      "outputs": [
        {
          "internalType": "int256",
          "name": "",
          "type": "int256"
        }
      ],
      "stateMutability": "view",
      "type": "function"
    },
    {
      "inputs": [],
      "name": "getFund",
      "outputs": [],
      "stateMutability": "nonpayable",
      "type": "function"
    },
    {
      "inputs": [],
      "name": "getFundSuccess",
      "outputs": [
        {
          "internalType": "bool",
          "name": "",
          "type": "bool"
        }
      ],
      "stateMutability": "view",
      "type": "function"
    },
    {
      "inputs": [],
      "name": "owner",
      "outputs": [
        {
          "internalType": "address",
          "name": "",
          "type": "address"
        }
      ],
      "stateMutability": "view",
      "type": "function"
    },
    {
      "inputs": [],
      "name": "refund",
      "outputs": [],
      "stateMutability": "nonpayable",
      "type": "function"
    },
    {
      "inputs": [
        {
          "internalType": "address",
          "name": "_erc20Addr",
          "type": "address"
        }
      ],
      "name": "setErc20Addr",
      "outputs": [],
      "stateMutability": "nonpayable",
      "type": "function"
    },
    {
      "inputs": [
        {
          "internalType": "address",
          "name": "funder",
          "type": "address"
        },
        {
          "internalType": "uint256",
          "name": "amountToUpdate",
          "type": "uint256"
        }
      ],
      "name": "setFunderToAmount",
      "outputs": [],
      "stateMutability": "nonpayable",
      "type": "function"
    },
    {
      "inputs": [
        {
          "internalType": "address",
          "name": "newOwner",
          "type": "address"
        }
      ],
      "name": "transferOwnership",
      "outputs": [],
      "stateMutability": "nonpayable",
      "type": "function"
    }
  ],
  "transactionHash": "0x0f63a3325c8aaa84dae39d4f6aa225c05aeec0d1cc74e26fb88500aea389ff03",
  "args": [
    180,
    "0x694AA1769357215DE4FAC081bf1f309aDC325306"
  ],
  "numDeployments": 2,
  "solcInputHash": "916880446afe4ed1ff2556ccbae44780",
  "bytecode": "0x60806040526000600560146101000a81548160ff0219169083151502179055503480156200002c57600080fd5b50604051620016193803806200161983398181016040528101906200005291906200018f565b80600160006101000a81548173ffffffffffffffffffffffffffffffffffffffff021916908373ffffffffffffffffffffffffffffffffffffffff16021790555033600260006101000a81548173ffffffffffffffffffffffffffffffffffffffff021916908373ffffffffffffffffffffffffffffffffffffffff16021790555042600381905550816004819055505050620001d6565b600080fd5b6000819050919050565b6200010481620000ef565b81146200011057600080fd5b50565b6000815190506200012481620000f9565b92915050565b600073ffffffffffffffffffffffffffffffffffffffff82169050919050565b600062000157826200012a565b9050919050565b62000169816200014a565b81146200017557600080fd5b50565b60008151905062000189816200015e565b92915050565b60008060408385031215620001a957620001a8620000ea565b5b6000620001b98582860162000113565b9250506020620001cc8582860162000178565b9150509250929050565b61143380620001e66000396000f3fe60806040526004361061009c5760003560e01c80639f883a05116100645780639f883a051461014e578063b60d42881461018b578063bea4dfb514610195578063d39cf006146101c0578063da4658e0146101e9578063f2fde38b146102145761009c565b806313ffff01146100a1578063590e1ae3146100ca5780638da5cb5b146100e15780638edd6eb61461010c5780639e42ff9014610123575b600080fd5b3480156100ad57600080fd5b506100c860048036038101906100c39190610c19565b61023d565b005b3480156100d657600080fd5b506100df610311565b005b3480156100ed57600080fd5b506100f66105a8565b6040516101039190610c55565b60405180910390f35b34801561011857600080fd5b506101216105ce565b005b34801561012f57600080fd5b50610138610850565b6040516101459190610ccf565b60405180910390f35b34801561015a57600080fd5b5061017560048036038101906101709190610c19565b610876565b6040516101829190610d03565b60405180910390f35b61019361088e565b005b3480156101a157600080fd5b506101aa610927565b6040516101b79190610d37565b60405180910390f35b3480156101cc57600080fd5b506101e760048036038101906101e29190610d7e565b6109c8565b005b3480156101f557600080fd5b506101fe610a9f565b60405161020b9190610dd9565b60405180910390f35b34801561022057600080fd5b5061023b60048036038101906102369190610c19565b610ab2565b005b600260009054906101000a900473ffffffffffffffffffffffffffffffffffffffff1673ffffffffffffffffffffffffffffffffffffffff163373ffffffffffffffffffffffffffffffffffffffff16146102cd576040517f08c379a00000000000000000000000000000000000000000000000000000000081526004016102c490610e51565b60405180910390fd5b80600560006101000a81548173ffffffffffffffffffffffffffffffffffffffff021916908373ffffffffffffffffffffffffffffffffffffffff16021790555050565b6004546003546103219190610ea0565b421015610363576040517f08c379a000000000000000000000000000000000000000000000000000000000815260040161035a90610f20565b60405180910390fd5b683635c9adc5dea0000061037647610b86565b106103b6576040517f08c379a00000000000000000000000000000000000000000000000000000000081526004016103ad90610f8c565b60405180910390fd5b60008060003373ffffffffffffffffffffffffffffffffffffffff1673ffffffffffffffffffffffffffffffffffffffff1681526020019081526020016000205403610437576040517f08c379a000000000000000000000000000000000000000000000000000000000815260040161042e90610ff8565b60405180910390fd5b6000806000803373ffffffffffffffffffffffffffffffffffffffff1673ffffffffffffffffffffffffffffffffffffffff1681526020019081526020016000205490503373ffffffffffffffffffffffffffffffffffffffff168160405161049f90611049565b60006040518083038185875af1925050503d80600081146104dc576040519150601f19603f3d011682016040523d82523d6000602084013e6104e1565b606091505b50508092505081610527576040517f08c379a000000000000000000000000000000000000000000000000000000000815260040161051e906110aa565b60405180910390fd5b60008060003373ffffffffffffffffffffffffffffffffffffffff1673ffffffffffffffffffffffffffffffffffffffff168152602001908152602001600020819055507fc69be1ee5ac2aec580fb0927d8d940555d6f0a7bd11eed94b5b597056113da5f338260405161059c9291906110ca565b60405180910390a15050565b600260009054906101000a900473ffffffffffffffffffffffffffffffffffffffff1681565b6004546003546105de9190610ea0565b421015610620576040517f08c379a000000000000000000000000000000000000000000000000000000000815260040161061790610f20565b60405180910390fd5b600260009054906101000a900473ffffffffffffffffffffffffffffffffffffffff1673ffffffffffffffffffffffffffffffffffffffff163373ffffffffffffffffffffffffffffffffffffffff16146106b0576040517f08c379a00000000000000000000000000000000000000000000000000000000081526004016106a790610e51565b60405180910390fd5b683635c9adc5dea000006106c347610b86565b1015610704576040517f08c379a00000000000000000000000000000000000000000000000000000000081526004016106fb9061113f565b60405180910390fd5b6000804790503373ffffffffffffffffffffffffffffffffffffffff168160405161072e90611049565b60006040518083038185875af1925050503d806000811461076b576040519150601f19603f3d011682016040523d82523d6000602084013e610770565b606091505b505080925050816107b6576040517f08c379a00000000000000000000000000000000000000000000000000000000081526004016107ad906110aa565b60405180910390fd5b60008060003373ffffffffffffffffffffffffffffffffffffffff1673ffffffffffffffffffffffffffffffffffffffff168152602001908152602001600020819055506001600560146101000a81548160ff0219169083151502179055507f2413e9342f4545ed6b87ad890930d6affc4c1914b742a3fad66c49d6d507c73b816040516108449190610d03565b60405180910390a15050565b600160009054906101000a900473ffffffffffffffffffffffffffffffffffffffff1681565b60006020528060005260406000206000915090505481565b68056bc75e2d631000006108a134610b86565b10156108e2576040517f08c379a00000000000000000000000000000000000000000000000000000000081526004016108d9906111ab565b60405180910390fd5b346000803373ffffffffffffffffffffffffffffffffffffffff1673ffffffffffffffffffffffffffffffffffffffff16815260200190815260200160002081905550565b600080600160009054906101000a900473ffffffffffffffffffffffffffffffffffffffff1673ffffffffffffffffffffffffffffffffffffffff1663feaf968c6040518163ffffffff1660e01b815260040160a060405180830381865afa158015610997573d6000803e3d6000fd5b505050506040513d601f19601f820116820180604052508101906109bb919061124e565b5050509150508091505090565b600560009054906101000a900473ffffffffffffffffffffffffffffffffffffffff1673ffffffffffffffffffffffffffffffffffffffff163373ffffffffffffffffffffffffffffffffffffffff1614610a58576040517f08c379a0000000000000000000000000000000000000000000000000000000008152600401610a4f9061133b565b60405180910390fd5b806000808473ffffffffffffffffffffffffffffffffffffffff1673ffffffffffffffffffffffffffffffffffffffff168152602001908152602001600020819055505050565b600560149054906101000a900460ff1681565b600260009054906101000a900473ffffffffffffffffffffffffffffffffffffffff1673ffffffffffffffffffffffffffffffffffffffff163373ffffffffffffffffffffffffffffffffffffffff1614610b42576040517f08c379a0000000000000000000000000000000000000000000000000000000008152600401610b3990610e51565b60405180910390fd5b80600260006101000a81548173ffffffffffffffffffffffffffffffffffffffff021916908373ffffffffffffffffffffffffffffffffffffffff16021790555050565b600080610b91610927565b90506305f5e1008184610ba4919061135b565b610bae91906113cc565b915050919050565b600080fd5b600073ffffffffffffffffffffffffffffffffffffffff82169050919050565b6000610be682610bbb565b9050919050565b610bf681610bdb565b8114610c0157600080fd5b50565b600081359050610c1381610bed565b92915050565b600060208284031215610c2f57610c2e610bb6565b5b6000610c3d84828501610c04565b91505092915050565b610c4f81610bdb565b82525050565b6000602082019050610c6a6000830184610c46565b92915050565b6000819050919050565b6000610c95610c90610c8b84610bbb565b610c70565b610bbb565b9050919050565b6000610ca782610c7a565b9050919050565b6000610cb982610c9c565b9050919050565b610cc981610cae565b82525050565b6000602082019050610ce46000830184610cc0565b92915050565b6000819050919050565b610cfd81610cea565b82525050565b6000602082019050610d186000830184610cf4565b92915050565b6000819050919050565b610d3181610d1e565b82525050565b6000602082019050610d4c6000830184610d28565b92915050565b610d5b81610cea565b8114610d6657600080fd5b50565b600081359050610d7881610d52565b92915050565b60008060408385031215610d9557610d94610bb6565b5b6000610da385828601610c04565b9250506020610db485828601610d69565b9150509250929050565b60008115159050919050565b610dd381610dbe565b82525050565b6000602082019050610dee6000830184610dca565b92915050565b600082825260208201905092915050565b7f6f6e6c7920746865206f776e65722063616e20646f2074686973000000000000600082015250565b6000610e3b601a83610df4565b9150610e4682610e05565b602082019050919050565b60006020820190508181036000830152610e6a81610e2e565b9050919050565b7f4e487b7100000000000000000000000000000000000000000000000000000000600052601160045260246000fd5b6000610eab82610cea565b9150610eb683610cea565b9250828201905080821115610ece57610ecd610e71565b5b92915050565b7f77696e646f77206973206e6f7420636c6f736564000000000000000000000000600082015250565b6000610f0a601483610df4565b9150610f1582610ed4565b602082019050919050565b60006020820190508181036000830152610f3981610efd565b9050919050565b7f5461726765742069732072656163686564000000000000000000000000000000600082015250565b6000610f76601183610df4565b9150610f8182610f40565b602082019050919050565b60006020820190508181036000830152610fa581610f69565b9050919050565b7f7468657265206973206e6f2066756e642066726f6d20796f7500000000000000600082015250565b6000610fe2601983610df4565b9150610fed82610fac565b602082019050919050565b6000602082019050818103600083015261101181610fd5565b9050919050565b600081905092915050565b50565b6000611033600083611018565b915061103e82611023565b600082019050919050565b600061105482611026565b9150819050919050565b7f7478206661696c65640000000000000000000000000000000000000000000000600082015250565b6000611094600983610df4565b915061109f8261105e565b602082019050919050565b600060208201905081810360008301526110c381611087565b9050919050565b60006040820190506110df6000830185610c46565b6110ec6020830184610cf4565b9392505050565b7f546172676574206973206e6f7420726561636865640000000000000000000000600082015250565b6000611129601583610df4565b9150611134826110f3565b602082019050919050565b600060208201905081810360008301526111588161111c565b9050919050565b7f53656e64206d6f72652045544800000000000000000000000000000000000000600082015250565b6000611195600d83610df4565b91506111a08261115f565b602082019050919050565b600060208201905081810360008301526111c481611188565b9050919050565b600069ffffffffffffffffffff82169050919050565b6111ea816111cb565b81146111f557600080fd5b50565b600081519050611207816111e1565b92915050565b61121681610d1e565b811461122157600080fd5b50565b6000815190506112338161120d565b92915050565b60008151905061124881610d52565b92915050565b600080600080600060a0868803121561126a57611269610bb6565b5b6000611278888289016111f8565b955050602061128988828901611224565b945050604061129a88828901611239565b93505060606112ab88828901611239565b92505060806112bc888289016111f8565b9150509295509295909350565b7f796f7520646f206e6f742068617665207065726d697373696f6e20746f2e206360008201527f616c6c20746869732066756e6374696f6e000000000000000000000000000000602082015250565b6000611325603183610df4565b9150611330826112c9565b604082019050919050565b6000602082019050818103600083015261135481611318565b9050919050565b600061136682610cea565b915061137183610cea565b925082820261137f81610cea565b9150828204841483151761139657611395610e71565b5b5092915050565b7f4e487b7100000000000000000000000000000000000000000000000000000000600052601260045260246000fd5b60006113d782610cea565b91506113e283610cea565b9250826113f2576113f161139d565b5b82820490509291505056fea26469706673582212206894ef976c381b2a5d0c42d4d9f8e7d06582d993bbc2c0a6395bba78f873ade964736f6c63430008180033",
  "devdoc": {
    "kind": "dev",
    "methods": {},
    "version": 1
  },
  "userdoc": {
    "kind": "user",
    "methods": {},
    "version": 1
  },
  "storageLayout": {
    "storage": [
      {
        "astId": 53,
        "contract": "contracts/FundMe.sol:Fundme",
        "label": "fundersToAmount",
        "offset": 0,
        "slot": "0",
        "type": "t_mapping(t_address,t_uint256)"
      },
      {
        "astId": 63,
        "contract": "contracts/FundMe.sol:Fundme",
        "label": "dataFeed",
        "offset": 0,
        "slot": "1",
        "type": "t_contract(AggregatorV3Interface)45"
      },
      {
        "astId": 72,
        "contract": "contracts/FundMe.sol:Fundme",
        "label": "owner",
        "offset": 0,
        "slot": "2",
        "type": "t_address"
      },
      {
        "astId": 74,
        "contract": "contracts/FundMe.sol:Fundme",
        "label": "deploymentTimestamp",
        "offset": 0,
        "slot": "3",
        "type": "t_uint256"
      },
      {
        "astId": 76,
        "contract": "contracts/FundMe.sol:Fundme",
        "label": "lockTime",
        "offset": 0,
        "slot": "4",
        "type": "t_uint256"
      },
      {
        "astId": 78,
        "contract": "contracts/FundMe.sol:Fundme",
        "label": "erc20Addr",
        "offset": 0,
        "slot": "5",
        "type": "t_address"
      },
      {
        "astId": 81,
        "contract": "contracts/FundMe.sol:Fundme",
        "label": "getFundSuccess",
        "offset": 20,
        "slot": "5",
        "type": "t_bool"
      }
    ],
    "types": {
      "t_address": {
        "encoding": "inplace",
        "label": "address",
        "numberOfBytes": "20"
      },
      "t_bool": {
        "encoding": "inplace",
        "label": "bool",
        "numberOfBytes": "1"
      },
      "t_contract(AggregatorV3Interface)45": {
        "encoding": "inplace",
        "label": "contract AggregatorV3Interface",
        "numberOfBytes": "20"
      },
      "t_mapping(t_address,t_uint256)": {
        "encoding": "mapping",
        "key": "t_address",
        "label": "mapping(address => uint256)",
        "numberOfBytes": "32",
        "value": "t_uint256"
      },
      "t_uint256": {
        "encoding": "inplace",
        "label": "uint256",
        "numberOfBytes": "32"
      }
    }
  }
}